:03000000020300F8
:03000300020016E2
:03000B00020027C9
:1800130002001D1204521204A93212043B12042B02030D3212037632CA
:200300007E64758CB7758AEED28C75A887758901753000753100753200753300753400759D
:20032000350071D9E5352430917B9198E5342430917B9198743A917B9198E5332430917B9E
:200340009198E5322430917B9198743A917B9198E5312430917B9198E5302430917B9198B4
:2003600002032275340075350075320075330075300075310022DE60A293B392937E64E535
:2003800030B40933753000E531B40530753100E532B4092D753200E533B4052A753300E5C3
:2003A00034B403028006B40922753400E535B4021F1203630203D805300203D805310203B1
:2003C000D805320203D805330203D805340203D80535758CB7758AEE2271E57408916874C6
:2003E00000916891987F149198DFFC75800774039168919874039168740391687402916860
:2004000074029168740891687400916874089168740091687401916891987400916874062B
:20042000916874009168740F9168227903A290B392907832D8FED9F5D29022753500753410
:2004400000753300753200753100753000740102046891649198900534916D9198916022FE
:200460007400800474C08000C280918722C0E0E4936005917BA3816FD0E022D280F5F0C46C
:200480009187E5F0918722C281C454F05380074280D282C282919822C000C001791478FAEB
:2004A000D8FED9FAD001D0002275A0F075A0F0E5A054F0B4F0F6B111E5A054F0B4F000B183
:2004C00011E5A054F0B4F00075A0FEE5A054F0B4F02175A0FDE5A054F0B4F01C75A0FBE56D
:2004E000A054F0B4F01775A0F7E5A054F0B4F0120204B6900524800D900528800890052CCA
:200500008003900530C4135003A380FAE493943022758901758BCA758D27D28E308FFDC21F
:200520008EC28F2231323330343536303738393030303030506C6561736520656E746572F5
:0A054000206E65772074696D650078
:00000001FF
