:03000000020300F8
:03000300020016E2
:03000B00020024CC
:1500130002001A1204563212043F12042F02030D3212037A327F
:200300007E64758CB7758AEED28C75A887758901753000753100753200753300753400759D
:20032000350071DD7401916AE5352430917D919AE5342430917D919A743A917D919AE5337E
:200340002430917D919AE5322430917D919A743A917D919AE5312430917D919AE530243079
:20036000917D919A02032475340075350075320075330075300075310022DE60A293B39254
:20038000937E64E530B40933753000E531B40530753100E532B4092D753200E533B4052AF6
:2003A000753300E534B403028006B40922753400E535B4021F1203670203DC05300203DC53
:2003C00005310203DC05320203DC05330203DC05340203DC0535758CB7758AEE2271E974EC
:2003E00008916A7400916A919A7F14919ADFFC7580077403916A919A7403916A7403916A4A
:200400007402916A7402916A7408916A7400916A7408916A7400916A7401916A919A74001F
:20042000916A7406916A7400916A740F916A227903A290B392907832D8FED9F5D290227573
:200440003500753400753300753200753100753000740102046A91669004AB916F919A914D
:2004600062227400800474C08000C280918922C0E0E4936005917DA38171D0E022D280F596
:20048000F0C49189E5F0918922C281C454F05380074280D282C282919A22C000C0017914A3
:2004A00078FAD8FED9FAD001D00022506C6561736520656E746572206E65772074696D658D
:0104C000003B
:00000001FF
