:03000000020300F8
:0300030002000EEA
:03001300020011D7
:09000B0002001112041E12036927
:2003000075890175300075300075320075330075340075350071CCE53524309141915EE5A1
:200320003424309141915E743A9141915EE53324309141915EE53224309141915E743A916D
:2003400041915EE53124309141915EE53024309141915E020315753400753500753200758F
:20036000330075300075310022DE60A293B392937E64758CB7758AEEE530B4093375300061
:20038000E531B40530753100E532B4092D753200E533B4052A753300E534B403028006B461
:2003A0000922753400E535B4021F1203560203CB05300203CB05310203CB05320203CB0528
:2003C000330203CB05340203CB05353271D87408912E7400912E915E7F14915EDFFC7580AD
:2003E000077403912E915E7403912E7403912E7402912E7402912E7408912E7400912E7419
:2004000008912E7400912E7401912E915E7400912E7406912E7400912E740F912E22912CFF
:2004200090046F9133915E912A22740074C0C280914D22C0E0E49360059141A38135D0E0E8
:2004400022D280F5F0C4914DE5F0914D22C281C454F05380074280D282C282915E22C0007C
:20046000C001791478FAD8FED9FAD001D00022506C6561736520656E746572206E6577202E
:0504800074696D6500C8
:00000001FF
