:03000000020300F8
:0300030002001EDA
:03001B0002001EC2
:2003000075890175300075300075320075330075340075350071D4E5352430912B9148E5C5
:20032000342430912B9148743A912B9148E5332430912B9148E5322430912B9148743A911D
:200340002B9148E5312430912B9148E5302430912B91481203BBE530B40942753000E531FD
:20036000B4053F753100E532B4093C753200E533B40539753300E534B403028006B4093130
:20038000753400E535B4022E75340075350075320075330075300075310002031505300278
:2003A000031505310203150532020315053302031505340203150535020315A293B392937E
:2003C0007E64758CB7758AEED28C308DFDC28CC28DDEEF2271E0740891267400912691486A
:2003E0007F149148DFFC758007740391269148740391267403912674029126740291267489
:2004000008912674009126740891267400912674019126914874009126740691267400912E
:2004200026740F912622C280913722D280F5F0C49137E5F0913722C281C454F05380074225
:1904400080D282C282914822C000C001791478FAD8FED9FAD001D00022A4
:00000001FF
