:03000000020300F8
:03000300020016E2
:03000B00020024CC
:1500130002001A1204523212043B12042B02030D32120376328F
:200300007E64758CB7758AEED28C75A887758901753000753100753200753300753400759D
:20032000350071D9E535243091799196E534243091799196743A91799196E53324309179AC
:200340009196E532243091799196743A91799196E531243091799196E530243091799196C6
:2003600002032275340075350075320075330075300075310022DE60A293B392937E64E535
:2003800030B40933753000E531B40530753100E532B4092D753200E533B4052A753300E5C3
:2003A00034B403028006B40922753400E535B4021F1203630203D805300203D805310203B1
:2003C000D805320203D805330203D805340203D80535758CB7758AEE2271E57408916674C8
:2003E00000916691967F149196DFFC75800774039166919674039166740391667402916670
:2004000074029166740891667400916674089166740091667401916691967400916674063B
:20042000916674009166740F9166227903A290B392907832D8FED9F5D29022753500753416
:200440000075330075320075310075300074010204669162900532916B9196915E227400BF
:20046000800474C08000C280918522C0E0E49360059179A3816DD0E022D280F5F0C49185D0
:20048000E5F0918522C281C454F05380074280D282C282919622C000C001791478FAD8FE31
:2004A000D9FAD001D0002275A0F075A0F0E5A054F0B4F0F6B10FE5A054F0B4F000B10FE567
:2004C000A054F0B4F00075A0FEE5A054F0B4F02175A0FDE5A054F0B4F01C75A0FBE5A0546F
:2004E000F0B4F01775A0F7E5A054F0B4F0120204B4900522800D900526800890052A800343
:2005000090052EC4135003A380FAE493943022758901758ACA758C27D28C308DFDC28CC25C
:200520008D2231323330343536303738393030303030506C6561736520656E746572206EB9
:0805400065772074696D650008
:00000001FF
